:100000000C945F000C9487000C9487000C9487007C
:100010000C9487000C9487000C9487000C94FA0DC4
:100020000C9487000C9454060C9487000C94F300F5
:100030000C94CB060C9487000C9487000C948700DA
:100040000C94E20B0C9487000C9487000C948700AE
:100050000C9487000C9487000C9487000C94870004
:100060000C94E8030C9487000000000800020100D3
:100070000003040700000000000000000102040863
:100080001020408001020408102001020408102002
:10009000040404040404040402020202020203032E
:1000A0000303030300000000250028002B000000CC
:1000B0000000240027002A000200EF00FE021124A5
:1000C0001FBECFEFD4E0DEBFCDBF11E0A0E0B1E0B6
:1000D000E0E9F1E202C005900D92AE32B107D9F726
:1000E00022E0AEE2B1E001C01D92A439B207E1F70F
:1000F00010E0CEEBD0E004C02297FE010E94A810D1
:10010000CA3BD107C9F70E94570E0C94C6100C9435
:10011000000043E065E08EE291E00E94D50B43E0F1
:1001200066E08EE291E00E94D50B43E069E08EE24A
:1001300091E00C94D50B41E065E08EE291E00E94E5
:10014000A30B48EE53E060E070E08EE291E00E9485
:10015000AB0B41E066E08EE291E00E94A30B48EE1B
:1001600053E060E070E08EE291E00E94AB0B41E072
:1001700069E08EE291E00E94A30B48EE53E060E05C
:1001800070E08EE291E00E94AB0B40E065E08EE211
:1001900091E00E94A30B48EE53E060E070E08EE235
:1001A00091E00E94AB0B40E066E08EE291E00E949D
:1001B000A30B48EE53E060E070E08EE291E00E9415
:1001C000AB0B40E069E08EE291E00E94A30B48EEA9
:1001D00053E060E070E08EE291E00C94AB0B8EE2B5
:1001E00091E00C94AF0B1F920F920FB60F92112457
:1001F0002F933F934F935F936F937F938F939F932F
:10020000AF93BF93EF93FF938091870187FF05C062
:1002100010928500109284001AC020918701332724
:1002200027FD30958091860190E0281739077CF4EE
:1002300080918701992787FD9095FC01EE0FFF1FA4
:10024000E80FF91FE857FE4F808186FD15C08091A9
:1002500087018F5F8093870120918701332727FDD6
:1002600030958091860190E028173907BCF4809181
:1002700087018C305CF112C080918701992787FD3E
:100280009095FC01EE0FFF1FE80FF91FE857FE4F96
:10029000808160E08F730E948F0DD9CF80918400A0
:1002A0009091850004968033954718F480E395E794
:1002B00005C08091840090918500049690938900F8
:1002C000809388008FEF8093870138C0209184004D
:1002D0003091850080918701992787FD9095FC01D9
:1002E000EE0FFF1FE80FF91FE857FE4F8181928143
:1002F000820F931F909389008093880080918701DB
:10030000992787FD9095FC01EE0FFF1FE80FF91F5D
:10031000E857FE4F808186FF11C0809187019927A1
:1003200087FD9095FC01EE0FFF1FE80FF91FE857BE
:10033000FE4F808161E08F730E948F0DFF91EF91DE
:10034000BF91AF919F918F917F916F915F914F91ED
:100350003F912F910F900FBE0F901F9018952091F5
:1003600086012C30A0F431E0320F30938601FC017D
:100370002083822F90E0FC01EE0FFF1FE80FF91F92
:10038000E857FE4F8AEC98E09283818308952FEF1F
:10039000FC0120830895FC01808190E0FC01EE0FB8
:1003A000FF1FE80FF91FE857FE4F80818F7B808386
:1003B00008958091DC0190E02091DD01821B91097C
:1003C00008952091DD018091DC01281750F4E22F7F
:1003D000F0E0E252FE4F808190E02F5F2093DD013C
:1003E00008958FEF9FEF0895E091DD018091DC018A
:1003F000E81730F4F0E0E252FE4F808190E008957B
:100400008FEF9FEF08950895CF92DF92EF92FF92C2
:100410000F931F93CF93DF937C01CB018A0120912F
:10042000B801222389F0EB016B01C40ED51ECC1557
:10043000DD0569F06991D701ED91FC910190F081A2
:10044000E02DC7010995F3CF642F0E94BF03C801B7
:10045000DF91CF911F910F91FF90EF90DF90CF90A0
:100460000895CF93DF931F92CDB7DEB769832091B4
:10047000B8012223D1F02091B901203240F021E0CF
:1004800030E0FC013383228380E090E015C080914E
:10049000BA01E82FF0E0E554FE4F998190838F5F19
:1004A0008093BA018093B90105C061E0CE01019645
:1004B0000E94BF0381E090E00F90DF91CF910895FB
:1004C000FC011382128248EE53E060E070E0448346
:1004D00055836683778389E091E0918380830895D3
:1004E0001092DD011092DC011092BA011092B90154
:1004F0000C94020381E08093B8016093DB011092B9
:10050000BA011092B90108950F93062F21E040918E
:10051000B9016BEB71E08091DB010E9468031092DE
:10052000BA011092B9011092B8010F9108958F92FB
:100530009F92AF92BF92CF92DF92EF92FF920F9372
:100540001F93CF93DF93EC01F62ED42E480159016F
:10055000EE2019F10E947A021E2D143008F013E0EB
:100560001150B8F0E881F98128E0129FB001112400
:10057000A501940104C056954795379527956A952E
:10058000D2F7CA01B9010190F081E02DCE010995A1
:10059000E7CF60E0CE010E9484024D2D413208F089
:1005A00040E22C2D6EED71E08F2D0E942003109201
:1005B000DD018093DC01DF91CF911F910F91FF90BE
:1005C000EF90DF90CF90BF90AF909F908F90089565
:1005D000CF92EF920F931F93C22EE12C00E010E018
:1005E00098010E9497021F910F91EF90CF9008956C
:1005F00021E00C94E80261E00C9484028CEA91E022
:100600000C94600210926B0281E080936902109258
:10061000680261E082E10E948F0D61E083E10E9447
:100620008F0DE9EBF0E080818E7F808380818D7F6C
:10063000808384E38093B80085E48093BC000895B0
:10064000413208F043C090916B029111FCCF91E0D0
:1006500090936B02209369022FEF2093FE0110927A
:100660004302240F2093420290936A0290916A02FF
:10067000880F892B80936A0280916802813061F42F
:100680001092680280916A028093BB008091BC0046
:1006900083FDF8CF85EC01C085EE8093BC0080918E
:1006A0006B028130E1F380914302841710F4409192
:1006B000430224E432E0FB01D9018A2F821B841714
:1006C00018F48D918193F9CF842F089580E00895D7
:1006D0000F93413208F04AC090916B029111FCCF08
:1006E00092E090936B02009369029FEF9093FE015A
:1006F0001092430240934202FB0164E472E0DB018A
:100700009A2F961B941718F491919D93F9CF1092FC
:100710006A0290916A02880F892B80936A02809105
:100720006802813061F41092680280916A028093BD
:10073000BB008091BC0083FDF8CF85EC01C085EE45
:100740008093BC00222321F080916B028230E1F380
:100750008091FE018F3F61F08091FE01803251F067
:100760008091FE01803341F483E007C081E005C041
:1007700080E003C082E001C084E00F9108956132FF
:1007800098F420916B02243089F460932002FC01DC
:1007900082E292E0DC012A2F281B261718F421910F
:1007A0002D93F9CF80E0089581E0089582E00895C7
:1007B00085ED8093BC008091BC0084FDFCCF10923D
:1007C0006B02089585EC8093BC0010926B02089533
:1007D0001F920F920FB60F9211242F933F934F93B6
:1007E0005F936F937F938F939F93AF93BF93EF9399
:1007F000FF938091B900887F803609F49EC078F518
:10080000883209F45DC090F4803109F456C038F4A0
:10081000882309F4F5C0883009F44FC0F5C0883149
:1008200009F44EC0803209F45FC0EEC0803409F490
:100830006AC058F4803309F457C0883309F0E4C023
:100840008093FE010E94E203DFC0803509F44FC0AF
:10085000883509F45DC0883409F0D6C0D3C0883922
:1008600009F4C4C0A8F4883709F467C038F488369E
:1008700009F463C0803709F460C0C6C0883809F441
:10088000B5C0803909F45FC0803809F0BDC05BC0D5
:10089000803B09F483C038F4803A09F466C0883A92
:1008A00009F47CC0B1C0803C09F4A4C0883C09F4C0
:1008B000A1C0883B09F487C0A7C080916A0210C01C
:1008C0009091430280914202981770F5E0914302A3
:1008D00081E08E0F80934302F0E0EC5BFD4F80815E
:1008E0008093BB0085EC83C08093FE018BC0E091B8
:1008F000430281E08E0F809343028091BB00F0E0C1
:10090000EC5BFD4F808390914302809142026BC06B
:10091000E091430281E08E0F809343028091BB00FF
:10092000F0E0EC5BFD4F80838091690281116AC029
:1009300081E08093680284EA5EC083E080936B026A
:100940001092FF01CFCF8091FF01803208F04EC09E
:10095000E091FF0181E08E0F8093FF018091BB0049
:10096000F0E0E050FE4F8083BDCF0E94E203809113
:10097000FF01803230F4E091FF01F0E0E050FE4FE3
:1009800010826091FF0170E0E0916402F0916502D5
:1009900080E092E009951092FF0136C084E08093D8
:1009A0006B021092210210922002E0916602F091F7
:1009B0006702099580912002811105C081E0809332
:1009C000200210922202E091210281E08E0F80939A
:1009D0002102F0E0EE5DFD4F80818093BB0090919D
:1009E000210280912002981708F47CCF85E880933B
:1009F000BC000AC085EC8093BC0010926B0204C05E
:100A00001092FE010E94D803FF91EF91BF91AF9128
:100A10009F918F917F916F915F914F913F912F9116
:100A20000F900FBE0F901F901895DC01ED91FC9177
:100A30000190F081E02D0994FC01608340EE5EE2BC
:100A400065E672E4428F538F648F758F08951F930C
:100A5000CF93DF93EC01162F68818CEA91E00E941E
:100A60007A02612F8CEA91E00E94310260E08CEA08
:100A700091E00E94840241E068818CEA91E00E944A
:100A8000F8028CEA91E00E94D901892B29F08CEAC6
:100A900091E00E94E10101C080E0DF91CF911F91C0
:100AA00008951F93CF93DF93EC0168818CEA91E066
:100AB0000E947A026AE28CEA91E00E9431028CEA9A
:100AC00091E00E94FB0241E068818CEA91E00E9483
:100AD000F8028CEA91E00E94D901892B31F08CEA6E
:100AE00091E00E94E101182F01C010E068818CEABA
:100AF00091E00E947A026AE28CEA91E00E9431025F
:100B0000612F70E06E7F8CEA91E00E9415058CEAFF
:100B100091E0DF91CF911F910C94FB021F93CF9333
:100B2000DF93EC0168818CEA91E00E947A026AE22C
:100B30008CEA91E00E9431028CEA91E00E94FB0273
:100B400041E068818CEA91E00E94F8028CEA91E031
:100B50000E94D901892B31F08CEA91E00E94E101D9
:100B6000182F01C010E068818CEA91E00E947A029F
:100B70006AE28CEA91E00E9431028D85882319F0A7
:100B800060E070E002C062E070E01961612B8CEA05
:100B900091E00E9415058CEA91E0DF91CF911F91C1
:100BA0000C94FB02CF93DF93EC016D874A8366239D
:100BB00029F064E277E98FE79BE304C064E277E918
:100BC0008FE79CE3443029F49B01AC010E94680E3E
:100BD00008C0483031F420E030E040E850E40E94A2
:100BE0001B1069877A878B879C876DE0CE010E94F6
:100BF000270568818CEA91E00E947A026BE270E03E
:100C00008CEA91E00E94150560E470E08CEA91E0C6
:100C10000E9415058CEA91E00E94FB026AE070E0F8
:100C200080E090E00E944D0CCE010E945105688149
:100C30008CEA91E00E947A0261E170E08CEA91E036
:100C40000E94150560EC70E08CEA91E00E941505A9
:100C50008CEA91E00E94FB0268818CEA91E00E949C
:100C60007A026EE070E08CEA91E00E9415058A81BC
:100C7000843029F0883051F462E070E002C061E015
:100C800070E08CEA91E00E94150505C060E08CEAF6
:100C900091E00E9431028CEA91E00E94FB02CE01B9
:100CA000DF91CF910C948E051F920F920FB60F9289
:100CB00011248F939F93AF93BF9380916C02909177
:100CC0006D02A0916E02B0916F020196A11DB11D3F
:100CD00080936C0290936D02A0936E02B0936F02AA
:100CE000BF91AF919F918F910F900FBE0F901F906A
:100CF0001895CF93DF93C82FD8E02D9A8CE291E01E
:100D00000E94870CC7FF02C02B9A01C02B988AE56E
:100D100090E00E94870CCC0F2D9880917902882357
:100D200029F01092790280E797E102C08CE291E00D
:100D30000E94870CD15009F785B1886285B98C2F44
:100D4000DF91CF910895EF92FF921F93CF93DF939E
:100D50001F92CDB7DEB721E020937802209379026D
:100D6000182F7C018E2D811B861740F4F70181918D
:100D70007F0169830E9479066981F4CF80E197E25F
:100D80000E94870C109278020F90DF91CF911F91F3
:100D9000FF90EF9008951F920F920FB60F921124BB
:100DA0000F931F932F933F934F935F936F937F9373
:100DB0008F939F93AF93BF93EF93FF93CF93DF9363
:100DC00000D01F92CDB7DEB780917502882309F459
:100DD0005FC0209181028091810290E09595879576
:100DE00095958795082F037026FF29C010917702EB
:100DF000113029F510927702809176028823F9F05C
:100E000088E00E94E50D1093740210927602109211
:100E1000750220917A0280917B0290E03CE3239F4F
:100E2000800D911D1124AA2797FDA095BA2F8093BC
:100E3000700290937102A0937202B0937302011139
:100E400036C01092770280917602882381F188E083
:100E50000E94E50D81E08093740210927602109258
:100E6000750220917A0280917B0290E03CE3239FFF
:100E7000800D911D1124AA2797FDA095BA2F80936C
:100E8000700290937102A0937202B09373020FC02C
:100E900080917402882359F085EA89831A821B8223
:100EA00063E0CE0101960E94A30610927402209185
:100EB0007A0280917B0290E03CE3239F800D911D9C
:100EC0001124AA2797FDA095BA2F40917002509146
:100ED00071026091720270917302481759076A0794
:100EE0007B0719F081E0809377020F900F900F90AD
:100EF000DF91CF91FF91EF91BF91AF919F918F9132
:100F00007F916F915F914F913F912F911F910F9121
:100F10000F900FBE0F901F9018950895FC01DB01F4
:100F200014968C911497838B15968C911597848BBE
:100F300016968C911697858B17968C911797868BA2
:100F40008C91878B11968C911197808F12968C9132
:100F50001297818F13968C91828F0895FC01DB018B
:100F60008C91838B11968C911197848B12968C9116
:100F70001297858B13968C911397868B14968C9170
:100F8000878B0895CF93DF93EC01611119C04A302C
:100F900011F461E010C04B3039F460E08A810E94A6
:100FA0008F0D61E08B8124C0483011F461E0F6CFF1
:100FB000493011F560E08A810E948F0D60E0F2CF28
:100FC0006130D1F44A3079F04B3011F460E003C065
:100FD000483031F461E08D810E948F0D61E007C0DF
:100FE000493051F460E08D810E948F0D60E08E8168
:100FF000DF91CF910C948F0DDF91CF9108954F9297
:101000005F926F927F92AF92BF92CF92DF92EF92F8
:10101000FF920F931F93CF93DF93EC01B42E6111D6
:1010200094C0FC01EF5AFF4F408304B405FC08C094
:10103000299B02C05D992FC1299902C05D9B2BC1DC
:1010400084B5B1100CC0806284BD299B03C084B5F7
:10105000806102C084B58F7E84BD18BC1CC18F7EA8
:1010600084BDA884299B69C089E18B1508F05AC00A
:101070006B2D70E080E090E00E94670F6B017C01B7
:1010800023EB3FEE4AE05BEB0E941B10A7019601A9
:101090000E941B102B013C0125E033EA42EC5FE388
:1010A000C701B6010E941B109B01AC01C301B20134
:1010B0000E94680E21E230EB42E95FE30E94670E76
:1010C0002B013C019B01AC01C701B6010E94171026
:1010D00018164CF46B2D70E080E090E00E94650FD4
:1010E0007B018C0102C0720183016A2D70E080E0F7
:1010F00090E00E94670F9B01AC01B701C8010E94FC
:101100001B1020E030E048EC52E40E94CC0E9B0122
:10111000AC0160E070E08FE793E40E94670E0E94EC
:10112000340F09C0BA9CC00111246CE97FEF0E9402
:10113000921061507F4F8A819EC0BA9CC0011124D9
:1011400064E670E00E949210F6CF613009F0A3C00F
:10115000FC01EE5AFF4F408304B407FC08C02A9BF1
:1011600002C05E9998C02A9902C05E9B94C084B563
:10117000B1100CC0806884BD2A9B03C084B5806414
:1011800002C084B58F7B84BD17BC85C08F7B84BDB6
:10119000A9842A9B68C089E18B1508F05AC06B2D81
:1011A00070E080E090E00E94670F6B017C0123EB10
:1011B0003FEE4AE05BEB0E941B10A70196010E94E4
:1011C0001B102B013C0125E033EA42EC5FE3C70131
:1011D000B6010E941B109B01AC01C301B2010E9429
:1011E000680E21E230EB42E95FE30E94670E2B01BB
:1011F0003C019B01AC01C701B6010E9417101816F3
:101200004CF46B2D70E080E090E00E94650F7B0154
:101210008C0102C0720183016A2D70E080E090E0D1
:101220000E94670F9B01AC01B701C8010E941B100F
:1012300020E030E048EC52E40E94CC0E9B01AC016F
:1012400060E070E08FE793E40E94670E0E94340F25
:1012500011C0BA9CC00111246CE97FEF0E9492106A
:1012600061507F4F07C0BA9CC001112464E670E052
:101270000E9492108D81DF91CF911F910F91FF906D
:10128000EF90DF90CF90BF90AF907F906F905F9086
:101290004F900C94CE0CDF91CF911F910F91FF9046
:1012A000EF90DF90CF90BF90AF907F906F905F9066
:1012B0004F9008958F929F92AF92BF92CF92DF92FC
:1012C000EF92FF920F931F93CF93DF93EC01611185
:1012D000AFC04A30D9F4FC01EF5AFF4F8081882318
:1012E00069F084B58F7E84BD90818885989FC00108
:1012F000112464E670E00E94921095C084B580626B
:1013000084BD84B58F7E84BD18BC90C04B3009F07D
:1013100080C0FC01EF5AFF4F8081882309F46FC021
:1013200084B58F7E84BD108108851A3108F45AC0B7
:10133000612F70E080E090E00E94670F6B017C01FC
:1013400023EB3FEE4AE05BEB0E941B10A7019601E6
:101350000E941B104B015C0125E033EA42EC5FE385
:10136000C701B6010E941B109B01AC01C501B4016D
:101370000E94680E21E230EB42E95FE30E94670EB3
:101380004B015C019B01AC01C701B6010E94171023
:1013900018164CF4612F70E080E090E00E94650F19
:1013A0006B017C0102C064017501602F70E080E078
:1013B00090E00E94670F9B01AC01B601C7010E943B
:1013C0001B1020E030E048EC52E40E94CC0E9B0160
:1013D000AC0160E070E08FE793E40E94670E0E942A
:1013E000340F09C0109FC00111246CE97FEF0E94E7
:1013F000921061507F4F8A810E94CE0C07C084B545
:10140000806284BD84B5806184BD18BC61E08B813D
:10141000BFC0483019F46FEF70E0EDCF493009F0EC
:10142000C5C060E070E08A810E94CE0C60E0EFCF22
:10143000613009F0BBC04A30D9F4FC01EE5AFF4FCD
:101440008081882369F084B58F7B84BD90818985F4
:10145000989FC001112464E670E00E94921093C02E
:1014600084B5806884BD84B58F7B84BD17BC8EC075
:101470004B3009F07BC0FC01EE5AFF4F808188237E
:1014800009F46CC084B58F7B84BD108109851A3145
:1014900008F45AC0612F70E080E090E00E94670F6E
:1014A0006B017C0123EB3FEE4AE05BEB0E941B10DB
:1014B000A70196010E941B104B015C0125E033EA55
:1014C00042EC5FE3C701B6010E941B109B01AC0117
:1014D000C501B4010E94680E21E230EB42E95FE3EE
:1014E0000E94670E4B015C019B01AC01C701B60174
:1014F0000E94171018164CF4612F70E080E090E005
:101500000E94650F6B017C0102C064017501602FB0
:1015100070E080E090E00E94670F9B01AC01B60193
:10152000C7010E941B1020E030E048EC52E40E940A
:10153000CC0E9B01AC0160E070E08FE793E40E9469
:10154000670E0E94340F16C0109FC00111246CE971
:101550007FEF0E94921061507F4F0CC084B580686D
:1015600084BD84B5806484BD17BC07C0483039F49D
:101570006FEF70E08D810E94CE0C61E008C04930B1
:10158000A9F460E070E08D810E94CE0C60E08E8155
:10159000DF91CF911F910F91FF90EF90DF90CF904F
:1015A000BF90AF909F908F900C948F0DDF91CF9153
:1015B0001F910F91FF90EF90DF90CF90BF90AF9071
:1015C0009F908F900895611104C061E0FC018381B8
:1015D00003C061E0FC0186810C94560DCF93DF932C
:1015E000EC01611116C087960E94CB01CE018A964C
:1015F0000E94CB0161E08A810E94560D61E08B81DF
:101600000E94560D60E08A810E948F0D60E08B8100
:1016100015C08D960E94CB01CE01C0960E94CB01D1
:1016200061E08D810E94560D61E08E810E94560D11
:1016300060E08D810E948F0D60E08E81DF91CF91FF
:101640000C948F0DFC0161110AC08085489FC00178
:10165000112464E670E00E94921084810BC0613016
:1016600059F48185489FC001112464E670E00E940E
:10167000921087810C94CE0C0895EF92FF920F93F5
:101680001F93CF93DF93EC0189E191E099838883E5
:101690008E01055E1F4F7E0183E3E80EF11CC80139
:1016A0000E94AF010D5F1F4F0E151F05C1F76DE1C1
:1016B000C8010E941C0532E03A8324E02B8383E0BA
:1016C0008C8397E09D8388E08E8345E04F8344E6DA
:1016D000488749878A8749E04B874AE04C874BE037
:1016E0004D874CE04E873F87288B998B8A8BDF9103
:1016F000CF911F910F91FF90EF900895CF93DF93BB
:10170000EC01862F4131B9F028F443504230C0F447
:1017100061E012C0443119F0453169F011C08CEA22
:1017200091E00E94700242E060E0CE01C396DF913A
:10173000CF910C94D20562E0DF91CF910C94560DBD
:10174000DF91CF910895862F442311F061E001C00D
:1017500060E00C948F0DCB01BA010C944D0CCF932B
:10176000DF93EC010E943D0B85E291E09983888331
:10177000CE018D5A9F4F0E948D0785E08A8329E014
:101780002B8336E03D839AE09E8344E64887498771
:101790008A878B873C872D879E878BE08F8761E0C8
:1017A00083E0DF91CF910C94560DCF93C42F0E940C
:1017B0007E0BC33029F461E083E0CF910C948F0D50
:1017C000CF9108951F920F920FB60F9211242F936D
:1017D0003F938F939F93AF93BF9380918502909196
:1017E0008602A0918702B0918802309184022DE296
:1017F000230F2D3720F40196A11DB11D05C020EB4C
:10180000230F0296A11DB11D2093840280938502AF
:1018100090938602A0938702B093880280918902F8
:1018200090918A02A0918B02B0918C020196A11D29
:10183000B11D8093890290938A02A0938B02B0938A
:101840008C02BF91AF919F918F913F912F910F90FB
:101850000FBE0F901F9018959FB7F8944091890282
:1018600050918A0260918B0270918C0286B5A89B80
:1018700006C08F3F21F04F5F5F4F6F4F7F4F9FBF7D
:101880002227342F452F562F280F311D411D511D62
:10189000A5E0B0E00E94AC1008958F929F92AF92A5
:1018A000BF92CF92DF92EF92FF926B017C010E9478
:1018B0002C0C4B015C01C114D104E104F104F1F0E2
:1018C0000E94660E0E942C0C681979098A099B09EE
:1018D000683E73408105910570F321E0C21AD1087A
:1018E000E108F10888EE880E83E0981EA11CB11C67
:1018F000C114D104E104F10429F7DDCFFF90EF908A
:10190000DF90CF90BF90AF909F908F9008958230DE
:10191000910540F09C01220F331F0597820F931F02
:101920000197F1F70895789484B5826084BD84B5F9
:10193000816084BD85B5826085BD85B5816085BDCA
:10194000EEE6F0E0808181608083E1E8F0E01082E3
:10195000808182608083808181608083E0E8F0E024
:10196000808181608083E1EBF0E08081846080830E
:10197000E0EBF0E0808181608083EAE7F0E0808145
:101980008460808380818260808380818E7F808379
:101990008081806880831092C10008951F93CF9347
:1019A000DF93182FEB0161E00E94560D209711F490
:1019B00060E004C0CF3FD10539F461E0812FDF91B1
:1019C000CF911F910C948F0DE12FF0E0E859FF4F5C
:1019D000E491E330F9F048F4E130B9F0E230A1F5F8
:1019E00084B5806284BDC8BD34C0E730E9F0E8301A
:1019F00019F1E43049F58091800080628093800085
:101A0000D0938B00C0938A0024C084B5806884BDC5
:101A1000C7BD1FC080918000806880938000D093F4
:101A20008900C093880015C08091B00080688093C1
:101A3000B000C093B3000DC08091B000806280936D
:101A4000B000C093B40005C0C038D1050CF0B5CFCC
:101A5000AFCFDF91CF911F910895833081F028F4AB
:101A6000813099F08230A1F008958730A9F0883054
:101A7000B9F08430D1F4809180008F7D03C08091D3
:101A800080008F7780938000089584B58F7702C09F
:101A900084B58F7D84BD08958091B0008F7703C099
:101AA0008091B0008F7D8093B0000895CF93DF9335
:101AB00090E0FC01E458FF4F2491FC01E057FF4FF8
:101AC0008491882349F190E0880F991FFC01E25529
:101AD000FF4FA591B4918C559F4FFC01C591D491B6
:101AE0009FB7611108C0F8948C91209582238C9344
:101AF000888182230AC0623051F4F8948C91322F8D
:101B0000309583238C938881822B888304C0F8943A
:101B10008C91822B8C939FBFDF91CF9108950F936F
:101B20001F93CF93DF931F92CDB7DEB7282F30E0FE
:101B3000F901E859FF4F8491F901E458FF4F1491DE
:101B4000F901E057FF4F04910023C9F0882321F0E9
:101B500069830E942D0D6981E02FF0E0EE0FFF1FD9
:101B6000EC55FF4FA591B4919FB7F8948C916111FA
:101B700003C01095812301C0812B8C939FBF0F90D0
:101B8000DF91CF911F910F910895813039F018F0B6
:101B9000823051F0089510926E00089580916F0088
:101BA0008D7F80936F000895809170008D7F80936A
:101BB000700081E08093B0008091B100887F8460E4
:101BC0008093B1001092B3000895CF93C82F8091F5
:101BD00004018C1307C0E8EBF0E084919FEF909331
:101BE000040101C08FEF0E94C50D60E08C2FCF91E2
:101BF0000C948F0D1F920F920FB60F9211242F93FA
:101C00003F934F935F936F937F938F939F93AF9384
:101C1000BF93EF93FF938091900290919102A091D6
:101C20009202B0919302892B8A2B8B2B51F19091C8
:101C30008D02E0918E02F0918F028081892780834E
:101C40008091900290919102A0919202B0919302A2
:101C5000181619061A061B06C4F48091900290917A
:101C60009102A0919202B09193020197A109B1094A
:101C70008093900290939102A0939202B09393026A
:101C800004C0809104010E94E50DFF91EF91BF9186
:101C9000AF919F918F917F916F915F914F913F9104
:101CA0002F910F900FBE0F901F90189508950E94CE
:101CB000930C0E94560E0E948900C0E0D0E00E9462
:101CC0009B002097E1F30E940000F9CF089550583F
:101CD000BB27AA270ED071C162D130F067D120F0A6
:101CE00031F49F3F11F41EF457C10EF4E095E7FB69
:101CF0004DC1E92F73D180F3BA17620773078407C8
:101D0000950718F071F49EF58BC10EF4E0950B2E3B
:101D1000BA2FA02D0B01B90190010C01CA01A0013D
:101D20001124FF27591B99F0593F50F4503E68F198
:101D30001A16F040A22F232F342F4427585FF3CFD9
:101D4000469537952795A795F0405395C9F77EF4AA
:101D50001F16BA0B620B730B840BBAF09150A1F0F3
:101D6000FF0FBB1F661F771F881FC2F70EC0BA0F79
:101D7000621F731F841F48F4879577956795B79501
:101D8000F7959E3F08F0B3CF9395880F08F09927F9
:101D9000EE0F9795879508950CD00FC107D140F0AD
:101DA000FED030F021F45F3F19F0F0C0511139C17D
:101DB000F3C014D198F39923C9F35523B1F3951BBC
:101DC000550BBB27AA2762177307840738F09F5F5C
:101DD0005F4F220F331F441FAA1FA9F333D00E2ECB
:101DE0003AF0E0E830D091505040E695001CCAF738
:101DF00029D0FE2F27D0660F771F881FBB1F2617FD
:101E000037074807AB07B0E809F0BB0B802DBF01CF
:101E1000FF2793585F4F2AF09E3F510568F0B6C0E8
:101E200000C15F3FECF3983EDCF3869577956795AC
:101E3000B795F7959F5FC9F7880F911D9695879580
:101E400097F90895E1E0660F771F881FBB1F62179F
:101E500073078407BA0720F0621B730B840BBA0B5D
:101E6000EE1F88F7E095089504D06894B111D9C0A9
:101E70000895BCD088F09F5790F0B92F9927B7519B
:101E8000A0F0D1F0660F771F881F991F1AF0BA953E
:101E9000C9F712C0B13081F0C3D0B1E00895C0C01D
:101EA000672F782F8827B85F39F0B93FCCF3869534
:101EB00077956795B395D9F73EF490958095709591
:101EC00061957F4F8F4F9F4F0895E89409C097FB0E
:101ED0003EF490958095709561957F4F8F4F9F4F01
:101EE0009923A9F0F92F96E9BB279395F695879545
:101EF00077956795B795F111F8CFFAF4BB0F11F408
:101F000060FF1BC06F5F7F4F8F4F9F4F16C08823AE
:101F100011F096E911C0772321F09EE8872F762FE4
:101F200005C0662371F096E8862F70E060E02AF025
:101F30009A95660F771F881FDAF7880F9695879511
:101F400097F90895990F0008550FAA0BE0E8FEEFE6
:101F500016161706E807F907C0F012161306E4076D
:101F6000F50798F0621B730B840B950B39F40A2666
:101F700061F0232B242B252B21F408950A2609F444
:101F8000A140A6958FEF811D811D089597F99F6748
:101F900080E870E060E008959FEF80EC08950024F1
:101FA0000A941616170618060906089500240A94BE
:101FB00012161306140605060895092E0394000C44
:101FC00011F4882352F0BB0F40F4BF2B11F460FFD3
:101FD00004C06F5F7F4F8F4F9F4F089557FD9058FC
:101FE000440F551F59F05F3F71F04795880F97FBDD
:101FF000991F61F09F3F79F0879508951216130697
:102000001406551FF2CF4695F1DF08C016161706C5
:102010001806991FF1CF86957105610508940895FA
:10202000E894BB2766277727CB0197F908958ADFC5
:1020300008F48FEF08950BD0C0CFB1DF28F0B6DFE2
:1020400018F0952309F0A2CFA7CF1124EACFC6DF5D
:10205000A0F3959FD1F3950F50E0551F629FF001BB
:10206000729FBB27F00DB11D639FAA27F00DB11D14
:10207000AA1F649F6627B00DA11D661F829F22279D
:10208000B00DA11D621F739FB00DA11D621F839F24
:10209000A00D611D221F749F3327A00D611D231FFA
:1020A000849F600D211D822F762F6A2F11249F5748
:1020B00050408AF0E1F088234AF0EE0FFF1FBB1F6B
:1020C000661F771F881F91505040A9F79E3F51050A
:1020D00070F05CCFA6CF5F3FECF3983EDCF38695C3
:1020E00077956795B795F795E7959F5FC1F7FE2BB5
:1020F000880F911D9695879597F90895AA1BBB1B8C
:1021000051E107C0AA1FBB1FA617B70710F0A61BF7
:10211000B70B881F991F5A95A9F780959095BC0118
:10212000CD01089597FB072E16F4009407D077FD94
:1021300009D00E947E1007FC05D03EF49095819551
:102140009F4F0895709561957F4F0895EE0FFF1F83
:102150000590F491E02D09940E94B710A59F900D71
:10216000B49F900DA49F800D911D11240895A29FEE
:10217000B001B39FC001A39F700D811D1124911D5B
:10218000B29F700D811D1124911D0895F894FFCF09
:1021900001000000FF0000000031020402D901E14B
:1021A00001F401030200000000EE0A8E07220BC2B8
:0E21B0000700000000E30AAE07FF075A09000F
:00000001FF
